{"contracts/Gravity.sol":{"GravatarRegistry":{"abi":[{"anonymous":false,"inputs":[{"indexed":false,"internalType":"uint256","name":"id","type":"uint256"},{"indexed":false,"internalType":"address","name":"owner","type":"address"},{"indexed":false,"internalType":"string","name":"displayName","type":"string"},{"indexed":false,"internalType":"string","name":"imageUrl","type":"string"}],"name":"NewGravatar","type":"event"},{"anonymous":false,"inputs":[{"indexed":false,"internalType":"uint256","name":"id","type":"uint256"},{"indexed":false,"internalType":"address","name":"owner","type":"address"},{"indexed":false,"internalType":"string","name":"displayName","type":"string"},{"indexed":false,"internalType":"string","name":"imageUrl","type":"string"}],"name":"UpdatedGravatar","type":"event"},{"inputs":[{"internalType":"string","name":"_displayName","type":"string"},{"internalType":"string","name":"_imageUrl","type":"string"}],"name":"createGravatar","outputs":[],"stateMutability":"nonpayable","type":"function"},{"inputs":[{"internalType":"address","name":"owner","type":"address"}],"name":"getGravatar","outputs":[{"internalType":"string","name":"","type":"string"},{"internalType":"string","name":"","type":"string"}],"stateMutability":"view","type":"function"},{"inputs":[{"internalType":"uint256","name":"","type":"uint256"}],"name":"gravatarToOwner","outputs":[{"internalType":"address","name":"","type":"address"}],"stateMutability":"view","type":"function"},{"inputs":[{"internalType":"uint256","name":"","type":"uint256"}],"name":"gravatars","outputs":[{"internalType":"address","name":"owner","type":"address"},{"internalType":"string","name":"displayName","type":"string"},{"internalType":"string","name":"imageUrl","type":"string"}],"stateMutability":"view","type":"function"},{"inputs":[{"internalType":"address","name":"","type":"address"}],"name":"ownerToGravatar","outputs":[{"internalType":"uint256","name":"","type":"uint256"}],"stateMutability":"view","type":"function"},{"inputs":[],"name":"setMythicalGravatar","outputs":[],"stateMutability":"nonpayable","type":"function"},{"inputs":[{"internalType":"string","name":"_imageUrl","type":"string"}],"name":"updateGravatarImage","outputs":[],"stateMutability":"nonpayable","type":"function"},{"inputs":[{"internalType":"string","name":"_displayName","type":"string"}],"name":"updateGravatarName","outputs":[],"stateMutability":"nonpayable","type":"function"}],"evm":{"bytecode":{"linkReferences":{},"object":"608060405234801561001057600080fd5b50610dc4806100206000396000f3fe608060405234801561001057600080fd5b50600436106100875760003560e01c8063a5ac36341161005b578063a5ac363414610114578063b18588fb14610142578063cdb3344a14610155578063d5ce24ed1461016857600080fd5b806281d6e51461008c5780631d4f2c6d146100a1578063359c1f72146100a957806388d0d391146100d3575b600080fd5b61009f61009a366004610a26565b61018a565b005b61009f610297565b6100bc6100b7366004610a63565b6103a6565b6040516100ca929190610ae0565b60405180910390f35b6100fc6100e1366004610b0e565b6001602052600090815260409020546001600160a01b031681565b6040516001600160a01b0390911681526020016100ca565b610134610122366004610a63565b60026020526000908152604090205481565b6040519081526020016100ca565b61009f610150366004610a26565b61052e565b61009f610163366004610b27565b61062f565b61017b610176366004610b0e565b61079a565b6040516100ca93929190610b8b565b336000908152600260205260409020546101a357600080fd5b33600090815260026020526040812054815481106101c3576101c3610bcb565b60009182526020909120600390910201546001600160a01b031633146101e857600080fd5b336000908152600260205260408120548154909183918390811061020e5761020e610bcb565b906000526020600020906003020160020190805190602001906102329291906108ea565b507f76571b7a897a1509c641587568218a290018fbdc8b9a724f17b77ff0eec22c0c81336000848154811061026957610269610bcb565b90600052602060002090600302016001018560405161028b9493929190610cbc565b60405180910390a15050565b738d3e809fbd258083a5ba004a527159da535c8aba33146102b757600080fd5b604080516060810182526000808252825180840184526001808252600160fd1b60208084018290528086019384528651808801885283815280820192909252958501528254908101835591805282517f290decd9548b62a8d60345a988386fc84ba6bc95484008f6362f93160ef3e563600390930292830180546001600160a01b0319166001600160a01b039092169190911781559051805193949193610385937f290decd9548b62a8d60345a988386fc84ba6bc95484008f6362f93160ef3e564019291909101906108ea565b50604082015180516103a19160028401916020909101906108ea565b505050565b6001600160a01b0381166000908152600260205260408120548154606092839291829081106103d7576103d7610bcb565b9060005260206000209060030201600101600082815481106103fb576103fb610bcb565b906000526020600020906003020160020181805461041890610be1565b80601f016020809104026020016040519081016040528092919081815260200182805461044490610be1565b80156104915780601f1061046657610100808354040283529160200191610491565b820191906000526020600020905b81548152906001019060200180831161047457829003601f168201915b505050505091508080546104a490610be1565b80601f01602080910402602001604051908101604052809291908181526020018280546104d090610be1565b801561051d5780601f106104f25761010080835404028352916020019161051d565b820191906000526020600020905b81548152906001019060200180831161050057829003601f168201915b505050505090509250925050915091565b3360009081526002602052604090205461054757600080fd5b336000908152600260205260408120548154811061056757610567610bcb565b60009182526020909120600390910201546001600160a01b0316331461058c57600080fd5b33600090815260026020526040812054815490918391839081106105b2576105b2610bcb565b906000526020600020906003020160010190805190602001906105d69291906108ea565b507f76571b7a897a1509c641587568218a290018fbdc8b9a724f17b77ff0eec22c0c8133846000858154811061060e5761060e610bcb565b906000526020600020906003020160020160405161028b9493929190610d03565b336000908152600260205260409020541561064957600080fd5b6040805160608101825233815260208082018581529282018490526000805460018101825590805282517f290decd9548b62a8d60345a988386fc84ba6bc95484008f6362f93160ef3e563600390920291820180546001600160a01b0319166001600160a01b03909216919091178155935180519394936106f3937f290decd9548b62a8d60345a988386fc84ba6bc95484008f6362f93160ef3e5649093019291909101906108ea565b506040820151805161070f9160028401916020909101906108ea565b50506000805490915061072490600190610d3f565b600081815260016020908152604080832080546001600160a01b0319163390811790915580845260029092529182902083905590519192507f9ab3aefb2ba6dc12910ac1bce4692cf5c3c0d06cff16327c64a3ef78228b130b9161078d91849187908790610d64565b60405180910390a1505050565b600081815481106107aa57600080fd5b6000918252602090912060039091020180546001820180546001600160a01b039092169350906107d990610be1565b80601f016020809104026020016040519081016040528092919081815260200182805461080590610be1565b80156108525780601f1061082757610100808354040283529160200191610852565b820191906000526020600020905b81548152906001019060200180831161083557829003601f168201915b50505050509080600201805461086790610be1565b80601f016020809104026020016040519081016040528092919081815260200182805461089390610be1565b80156108e05780601f106108b5576101008083540402835291602001916108e0565b820191906000526020600020905b8154815290600101906020018083116108c357829003601f168201915b5050505050905083565b8280546108f690610be1565b90600052602060002090601f016020900481019282610918576000855561095e565b82601f1061093157805160ff191683800117855561095e565b8280016001018555821561095e579182015b8281111561095e578251825591602001919060010190610943565b5061096a92915061096e565b5090565b5b8082111561096a576000815560010161096f565b634e487b7160e01b600052604160045260246000fd5b600082601f8301126109aa57600080fd5b813567ffffffffffffffff808211156109c5576109c5610983565b604051601f8301601f19908116603f011681019082821181831017156109ed576109ed610983565b81604052838152866020858801011115610a0657600080fd5b836020870160208301376000602085830101528094505050505092915050565b600060208284031215610a3857600080fd5b813567ffffffffffffffff811115610a4f57600080fd5b610a5b84828501610999565b949350505050565b600060208284031215610a7557600080fd5b81356001600160a01b0381168114610a8c57600080fd5b9392505050565b6000815180845260005b81811015610ab957602081850181015186830182015201610a9d565b81811115610acb576000602083870101525b50601f01601f19169290920160200192915050565b604081526000610af36040830185610a93565b8281036020840152610b058185610a93565b95945050505050565b600060208284031215610b2057600080fd5b5035919050565b60008060408385031215610b3a57600080fd5b823567ffffffffffffffff80821115610b5257600080fd5b610b5e86838701610999565b93506020850135915080821115610b7457600080fd5b50610b8185828601610999565b9150509250929050565b6001600160a01b0384168152606060208201819052600090610baf90830185610a93565b8281036040840152610bc18185610a93565b9695505050505050565b634e487b7160e01b600052603260045260246000fd5b600181811c90821680610bf557607f821691505b60208210811415610c1657634e487b7160e01b600052602260045260246000fd5b50919050565b8054600090600181811c9080831680610c3657607f831692505b6020808410821415610c5857634e487b7160e01b600052602260045260246000fd5b83885260208801828015610c735760018114610c8457610caf565b60ff19871682528282019750610caf565b60008981526020902060005b87811015610ca957815484820152908601908401610c90565b83019850505b5050505050505092915050565b8481526001600160a01b0384166020820152608060408201819052600090610ce690830185610c1c565b8281036060840152610cf88185610a93565b979650505050505050565b8481526001600160a01b0384166020820152608060408201819052600090610d2d90830185610a93565b8281036060840152610cf88185610c1c565b600082821015610d5f57634e487b7160e01b600052601160045260246000fd5b500390565b8481526001600160a01b0384166020820152608060408201819052600090610ce690830185610a9356fea2646970667358221220bb4886745e5a985f41a525733020a32429d04d1f98d54921d61330b7045b3ef864736f6c634300080a0033","opcodes":"PUSH1 0x80 PUSH1 0x40 MSTORE CALLVALUE DUP1 ISZERO PUSH2 0x10 JUMPI PUSH1 0x0 DUP1 REVERT JUMPDEST POP PUSH2 0xDC4 DUP1 PUSH2 0x20 PUSH1 0x0 CODECOPY PUSH1 0x0 RETURN INVALID PUSH1 0x80 PUSH1 0x40 MSTORE CALLVALUE DUP1 ISZERO PUSH2 0x10 JUMPI PUSH1 0x0 DUP1 REVERT JUMPDEST POP PUSH1 0x4 CALLDATASIZE LT PUSH2 0x87 JUMPI PUSH1 0x0 CALLDATALOAD PUSH1 0xE0 SHR DUP1 PUSH4 0xA5AC3634 GT PUSH2 0x5B JUMPI DUP1 PUSH4 0xA5AC3634 EQ PUSH2 0x114 JUMPI DUP1 PUSH4 0xB18588FB EQ PUSH2 0x142 JUMPI DUP1 PUSH4 0xCDB3344A EQ PUSH2 0x155 JUMPI DUP1 PUSH4 0xD5CE24ED EQ PUSH2 0x168 JUMPI PUSH1 0x0 DUP1 REVERT JUMPDEST DUP1 PUSH3 0x81D6E5 EQ PUSH2 0x8C JUMPI DUP1 PUSH4 0x1D4F2C6D EQ PUSH2 0xA1 JUMPI DUP1 PUSH4 0x359C1F72 EQ PUSH2 0xA9 JUMPI DUP1 PUSH4 0x88D0D391 EQ PUSH2 0xD3 JUMPI JUMPDEST PUSH1 0x0 DUP1 REVERT JUMPDEST PUSH2 0x9F PUSH2 0x9A CALLDATASIZE PUSH1 0x4 PUSH2 0xA26 JUMP JUMPDEST PUSH2 0x18A JUMP JUMPDEST STOP JUMPDEST PUSH2 0x9F PUSH2 0x297 JUMP JUMPDEST PUSH2 0xBC PUSH2 0xB7 CALLDATASIZE PUSH1 0x4 PUSH2 0xA63 JUMP JUMPDEST PUSH2 0x3A6 JUMP JUMPDEST PUSH1 0x40 MLOAD PUSH2 0xCA SWAP3 SWAP2 SWAP1 PUSH2 0xAE0 JUMP JUMPDEST PUSH1 0x40 MLOAD DUP1 SWAP2 SUB SWAP1 RETURN JUMPDEST PUSH2 0xFC PUSH2 0xE1 CALLDATASIZE PUSH1 0x4 PUSH2 0xB0E JUMP JUMPDEST PUSH1 0x1 PUSH1 0x20 MSTORE PUSH1 0x0 SWAP1 DUP2 MSTORE PUSH1 0x40 SWAP1 KECCAK256 SLOAD PUSH1 0x1 PUSH1 0x1 PUSH1 0xA0 SHL SUB AND DUP2 JUMP JUMPDEST PUSH1 0x40 MLOAD PUSH1 0x1 PUSH1 0x1 PUSH1 0xA0 SHL SUB SWAP1 SWAP2 AND DUP2 MSTORE PUSH1 0x20 ADD PUSH2 0xCA JUMP JUMPDEST PUSH2 0x134 PUSH2 0x122 CALLDATASIZE PUSH1 0x4 PUSH2 0xA63 JUMP JUMPDEST PUSH1 0x2 PUSH1 0x20 MSTORE PUSH1 0x0 SWAP1 DUP2 MSTORE PUSH1 0x40 SWAP1 KECCAK256 SLOAD DUP2 JUMP JUMPDEST PUSH1 0x40 MLOAD SWAP1 DUP2 MSTORE PUSH1 0x20 ADD PUSH2 0xCA JUMP JUMPDEST PUSH2 0x9F PUSH2 0x150 CALLDATASIZE PUSH1 0x4 PUSH2 0xA26 JUMP JUMPDEST PUSH2 0x52E JUMP JUMPDEST PUSH2 0x9F PUSH2 0x163 CALLDATASIZE PUSH1 0x4 PUSH2 0xB27 JUMP JUMPDEST PUSH2 0x62F JUMP JUMPDEST PUSH2 0x17B PUSH2 0x176 CALLDATASIZE PUSH1 0x4 PUSH2 0xB0E JUMP JUMPDEST PUSH2 0x79A JUMP JUMPDEST PUSH1 0x40 MLOAD PUSH2 0xCA SWAP4 SWAP3 SWAP2 SWAP1 PUSH2 0xB8B JUMP JUMPDEST CALLER PUSH1 0x0 SWAP1 DUP2 MSTORE PUSH1 0x2 PUSH1 0x20 MSTORE PUSH1 0x40 SWAP1 KECCAK256 SLOAD PUSH2 0x1A3 JUMPI PUSH1 0x0 DUP1 REVERT JUMPDEST CALLER PUSH1 0x0 SWAP1 DUP2 MSTORE PUSH1 0x2 PUSH1 0x20 MSTORE PUSH1 0x40 DUP2 KECCAK256 SLOAD DUP2 SLOAD DUP2 LT PUSH2 0x1C3 JUMPI PUSH2 0x1C3 PUSH2 0xBCB JUMP JUMPDEST PUSH1 0x0 SWAP2 DUP3 MSTORE PUSH1 0x20 SWAP1 SWAP2 KECCAK256 PUSH1 0x3 SWAP1 SWAP2 MUL ADD SLOAD PUSH1 0x1 PUSH1 0x1 PUSH1 0xA0 SHL SUB AND CALLER EQ PUSH2 0x1E8 JUMPI PUSH1 0x0 DUP1 REVERT JUMPDEST CALLER PUSH1 0x0 SWAP1 DUP2 MSTORE PUSH1 0x2 PUSH1 0x20 MSTORE PUSH1 0x40 DUP2 KECCAK256 SLOAD DUP2 SLOAD SWAP1 SWAP2 DUP4 SWAP2 DUP4 SWAP1 DUP2 LT PUSH2 0x20E JUMPI PUSH2 0x20E PUSH2 0xBCB JUMP JUMPDEST SWAP1 PUSH1 0x0 MSTORE PUSH1 0x20 PUSH1 0x0 KECCAK256 SWAP1 PUSH1 0x3 MUL ADD PUSH1 0x2 ADD SWAP1 DUP1 MLOAD SWAP1 PUSH1 0x20 ADD SWAP1 PUSH2 0x232 SWAP3 SWAP2 SWAP1 PUSH2 0x8EA JUMP JUMPDEST POP PUSH32 0x76571B7A897A1509C641587568218A290018FBDC8B9A724F17B77FF0EEC22C0C DUP2 CALLER PUSH1 0x0 DUP5 DUP2 SLOAD DUP2 LT PUSH2 0x269 JUMPI PUSH2 0x269 PUSH2 0xBCB JUMP JUMPDEST SWAP1 PUSH1 0x0 MSTORE PUSH1 0x20 PUSH1 0x0 KECCAK256 SWAP1 PUSH1 0x3 MUL ADD PUSH1 0x1 ADD DUP6 PUSH1 0x40 MLOAD PUSH2 0x28B SWAP5 SWAP4 SWAP3 SWAP2 SWAP1 PUSH2 0xCBC JUMP JUMPDEST PUSH1 0x40 MLOAD DUP1 SWAP2 SUB SWAP1 LOG1 POP POP JUMP JUMPDEST PUSH20 0x8D3E809FBD258083A5BA004A527159DA535C8ABA CALLER EQ PUSH2 0x2B7 JUMPI PUSH1 0x0 DUP1 REVERT JUMPDEST PUSH1 0x40 DUP1 MLOAD PUSH1 0x60 DUP2 ADD DUP3 MSTORE PUSH1 0x0 DUP1 DUP3 MSTORE DUP3 MLOAD DUP1 DUP5 ADD DUP5 MSTORE PUSH1 0x1 DUP1 DUP3 MSTORE PUSH1 0x1 PUSH1 0xFD SHL PUSH1 0x20 DUP1 DUP5 ADD DUP3 SWAP1 MSTORE DUP1 DUP7 ADD SWAP4 DUP5 MSTORE DUP7 MLOAD DUP1 DUP9 ADD DUP9 MSTORE DUP4 DUP2 MSTORE DUP1 DUP3 ADD SWAP3 SWAP1 SWAP3 MSTORE SWAP6 DUP6 ADD MSTORE DUP3 SLOAD SWAP1 DUP2 ADD DUP4 SSTORE SWAP2 DUP1 MSTORE DUP3 MLOAD PUSH32 0x290DECD9548B62A8D60345A988386FC84BA6BC95484008F6362F93160EF3E563 PUSH1 0x3 SWAP1 SWAP4 MUL SWAP3 DUP4 ADD DUP1 SLOAD PUSH1 0x1 PUSH1 0x1 PUSH1 0xA0 SHL SUB NOT AND PUSH1 0x1 PUSH1 0x1 PUSH1 0xA0 SHL SUB SWAP1 SWAP3 AND SWAP2 SWAP1 SWAP2 OR DUP2 SSTORE SWAP1 MLOAD DUP1 MLOAD SWAP4 SWAP5 SWAP2 SWAP4 PUSH2 0x385 SWAP4 PUSH32 0x290DECD9548B62A8D60345A988386FC84BA6BC95484008F6362F93160EF3E564 ADD SWAP3 SWAP2 SWAP1 SWAP2 ADD SWAP1 PUSH2 0x8EA JUMP JUMPDEST POP PUSH1 0x40 DUP3 ADD MLOAD DUP1 MLOAD PUSH2 0x3A1 SWAP2 PUSH1 0x2 DUP5 ADD SWAP2 PUSH1 0x20 SWAP1 SWAP2 ADD SWAP1 PUSH2 0x8EA JUMP JUMPDEST POP POP POP JUMP JUMPDEST PUSH1 0x1 PUSH1 0x1 PUSH1 0xA0 SHL SUB DUP2 AND PUSH1 0x0 SWAP1 DUP2 MSTORE PUSH1 0x2 PUSH1 0x20 MSTORE PUSH1 0x40 DUP2 KECCAK256 SLOAD DUP2 SLOAD PUSH1 0x60 SWAP3 DUP4 SWAP3 SWAP2 DUP3 SWAP1 DUP2 LT PUSH2 0x3D7 JUMPI PUSH2 0x3D7 PUSH2 0xBCB JUMP JUMPDEST SWAP1 PUSH1 0x0 MSTORE PUSH1 0x20 PUSH1 0x0 KECCAK256 SWAP1 PUSH1 0x3 MUL ADD PUSH1 0x1 ADD PUSH1 0x0 DUP3 DUP2 SLOAD DUP2 LT PUSH2 0x3FB JUMPI PUSH2 0x3FB PUSH2 0xBCB JUMP JUMPDEST SWAP1 PUSH1 0x0 MSTORE PUSH1 0x20 PUSH1 0x0 KECCAK256 SWAP1 PUSH1 0x3 MUL ADD PUSH1 0x2 ADD DUP2 DUP1 SLOAD PUSH2 0x418 SWAP1 PUSH2 0xBE1 JUMP JUMPDEST DUP1 PUSH1 0x1F ADD PUSH1 0x20 DUP1 SWAP2 DIV MUL PUSH1 0x20 ADD PUSH1 0x40 MLOAD SWAP1 DUP2 ADD PUSH1 0x40 MSTORE DUP1 SWAP3 SWAP2 SWAP1 DUP2 DUP2 MSTORE PUSH1 0x20 ADD DUP3 DUP1 SLOAD PUSH2 0x444 SWAP1 PUSH2 0xBE1 JUMP JUMPDEST DUP1 ISZERO PUSH2 0x491 JUMPI DUP1 PUSH1 0x1F LT PUSH2 0x466 JUMPI PUSH2 0x100 DUP1 DUP4 SLOAD DIV MUL DUP4 MSTORE SWAP2 PUSH1 0x20 ADD SWAP2 PUSH2 0x491 JUMP JUMPDEST DUP3 ADD SWAP2 SWAP1 PUSH1 0x0 MSTORE PUSH1 0x20 PUSH1 0x0 KECCAK256 SWAP1 JUMPDEST DUP2 SLOAD DUP2 MSTORE SWAP1 PUSH1 0x1 ADD SWAP1 PUSH1 0x20 ADD DUP1 DUP4 GT PUSH2 0x474 JUMPI DUP3 SWAP1 SUB PUSH1 0x1F AND DUP3 ADD SWAP2 JUMPDEST POP POP POP POP POP SWAP2 POP DUP1 DUP1 SLOAD PUSH2 0x4A4 SWAP1 PUSH2 0xBE1 JUMP JUMPDEST DUP1 PUSH1 0x1F ADD PUSH1 0x20 DUP1 SWAP2 DIV MUL PUSH1 0x20 ADD PUSH1 0x40 MLOAD SWAP1 DUP2 ADD PUSH1 0x40 MSTORE DUP1 SWAP3 SWAP2 SWAP1 DUP2 DUP2 MSTORE PUSH1 0x20 ADD DUP3 DUP1 SLOAD PUSH2 0x4D0 SWAP1 PUSH2 0xBE1 JUMP JUMPDEST DUP1 ISZERO PUSH2 0x51D JUMPI DUP1 PUSH1 0x1F LT PUSH2 0x4F2 JUMPI PUSH2 0x100 DUP1 DUP4 SLOAD DIV MUL DUP4 MSTORE SWAP2 PUSH1 0x20 ADD SWAP2 PUSH2 0x51D JUMP JUMPDEST DUP3 ADD SWAP2 SWAP1 PUSH1 0x0 MSTORE PUSH1 0x20 PUSH1 0x0 KECCAK256 SWAP1 JUMPDEST DUP2 SLOAD DUP2 MSTORE SWAP1 PUSH1 0x1 ADD SWAP1 PUSH1 0x20 ADD DUP1 DUP4 GT PUSH2 0x500 JUMPI DUP3 SWAP1 SUB PUSH1 0x1F AND DUP3 ADD SWAP2 JUMPDEST POP POP POP POP POP SWAP1 POP SWAP3 POP SWAP3 POP POP SWAP2 POP SWAP2 JUMP JUMPDEST CALLER PUSH1 0x0 SWAP1 DUP2 MSTORE PUSH1 0x2 PUSH1 0x20 MSTORE PUSH1 0x40 SWAP1 KECCAK256 SLOAD PUSH2 0x547 JUMPI PUSH1 0x0 DUP1 REVERT JUMPDEST CALLER PUSH1 0x0 SWAP1 DUP2 MSTORE PUSH1 0x2 PUSH1 0x20 MSTORE PUSH1 0x40 DUP2 KECCAK256 SLOAD DUP2 SLOAD DUP2 LT PUSH2 0x567 JUMPI PUSH2 0x567 PUSH2 0xBCB JUMP JUMPDEST PUSH1 0x0 SWAP2 DUP3 MSTORE PUSH1 0x20 SWAP1 SWAP2 KECCAK256 PUSH1 0x3 SWAP1 SWAP2 MUL ADD SLOAD PUSH1 0x1 PUSH1 0x1 PUSH1 0xA0 SHL SUB AND CALLER EQ PUSH2 0x58C JUMPI PUSH1 0x0 DUP1 REVERT JUMPDEST CALLER PUSH1 0x0 SWAP1 DUP2 MSTORE PUSH1 0x2 PUSH1 0x20 MSTORE PUSH1 0x40 DUP2 KECCAK256 SLOAD DUP2 SLOAD SWAP1 SWAP2 DUP4 SWAP2 DUP4 SWAP1 DUP2 LT PUSH2 0x5B2 JUMPI PUSH2 0x5B2 PUSH2 0xBCB JUMP JUMPDEST SWAP1 PUSH1 0x0 MSTORE PUSH1 0x20 PUSH1 0x0 KECCAK256 SWAP1 PUSH1 0x3 MUL ADD PUSH1 0x1 ADD SWAP1 DUP1 MLOAD SWAP1 PUSH1 0x20 ADD SWAP1 PUSH2 0x5D6 SWAP3 SWAP2 SWAP1 PUSH2 0x8EA JUMP JUMPDEST POP PUSH32 0x76571B7A897A1509C641587568218A290018FBDC8B9A724F17B77FF0EEC22C0C DUP2 CALLER DUP5 PUSH1 0x0 DUP6 DUP2 SLOAD DUP2 LT PUSH2 0x60E JUMPI PUSH2 0x60E PUSH2 0xBCB JUMP JUMPDEST SWAP1 PUSH1 0x0 MSTORE PUSH1 0x20 PUSH1 0x0 KECCAK256 SWAP1 PUSH1 0x3 MUL ADD PUSH1 0x2 ADD PUSH1 0x40 MLOAD PUSH2 0x28B SWAP5 SWAP4 SWAP3 SWAP2 SWAP1 PUSH2 0xD03 JUMP JUMPDEST CALLER PUSH1 0x0 SWAP1 DUP2 MSTORE PUSH1 0x2 PUSH1 0x20 MSTORE PUSH1 0x40 SWAP1 KECCAK256 SLOAD ISZERO PUSH2 0x649 JUMPI PUSH1 0x0 DUP1 REVERT JUMPDEST PUSH1 0x40 DUP1 MLOAD PUSH1 0x60 DUP2 ADD DUP3 MSTORE CALLER DUP2 MSTORE PUSH1 0x20 DUP1 DUP3 ADD DUP6 DUP2 MSTORE SWAP3 DUP3 ADD DUP5 SWAP1 MSTORE PUSH1 0x0 DUP1 SLOAD PUSH1 0x1 DUP2 ADD DUP3 SSTORE SWAP1 DUP1 MSTORE DUP3 MLOAD PUSH32 0x290DECD9548B62A8D60345A988386FC84BA6BC95484008F6362F93160EF3E563 PUSH1 0x3 SWAP1 SWAP3 MUL SWAP2 DUP3 ADD DUP1 SLOAD PUSH1 0x1 PUSH1 0x1 PUSH1 0xA0 SHL SUB NOT AND PUSH1 0x1 PUSH1 0x1 PUSH1 0xA0 SHL SUB SWAP1 SWAP3 AND SWAP2 SWAP1 SWAP2 OR DUP2 SSTORE SWAP4 MLOAD DUP1 MLOAD SWAP4 SWAP5 SWAP4 PUSH2 0x6F3 SWAP4 PUSH32 0x290DECD9548B62A8D60345A988386FC84BA6BC95484008F6362F93160EF3E564 SWAP1 SWAP4 ADD SWAP3 SWAP2 SWAP1 SWAP2 ADD SWAP1 PUSH2 0x8EA JUMP JUMPDEST POP PUSH1 0x40 DUP3 ADD MLOAD DUP1 MLOAD PUSH2 0x70F SWAP2 PUSH1 0x2 DUP5 ADD SWAP2 PUSH1 0x20 SWAP1 SWAP2 ADD SWAP1 PUSH2 0x8EA JUMP JUMPDEST POP POP PUSH1 0x0 DUP1 SLOAD SWAP1 SWAP2 POP PUSH2 0x724 SWAP1 PUSH1 0x1 SWAP1 PUSH2 0xD3F JUMP JUMPDEST PUSH1 0x0 DUP2 DUP2 MSTORE PUSH1 0x1 PUSH1 0x20 SWAP1 DUP2 MSTORE PUSH1 0x40 DUP1 DUP4 KECCAK256 DUP1 SLOAD PUSH1 0x1 PUSH1 0x1 PUSH1 0xA0 SHL SUB NOT AND CALLER SWAP1 DUP2 OR SWAP1 SWAP2 SSTORE DUP1 DUP5 MSTORE PUSH1 0x2 SWAP1 SWAP3 MSTORE SWAP2 DUP3 SWAP1 KECCAK256 DUP4 SWAP1 SSTORE SWAP1 MLOAD SWAP2 SWAP3 POP PUSH32 0x9AB3AEFB2BA6DC12910AC1BCE4692CF5C3C0D06CFF16327C64A3EF78228B130B SWAP2 PUSH2 0x78D SWAP2 DUP5 SWAP2 DUP8 SWAP1 DUP8 SWAP1 PUSH2 0xD64 JUMP JUMPDEST PUSH1 0x40 MLOAD DUP1 SWAP2 SUB SWAP1 LOG1 POP POP POP JUMP JUMPDEST PUSH1 0x0 DUP2 DUP2 SLOAD DUP2 LT PUSH2 0x7AA JUMPI PUSH1 0x0 DUP1 REVERT JUMPDEST PUSH1 0x0 SWAP2 DUP3 MSTORE PUSH1 0x20 SWAP1 SWAP2 KECCAK256 PUSH1 0x3 SWAP1 SWAP2 MUL ADD DUP1 SLOAD PUSH1 0x1 DUP3 ADD DUP1 SLOAD PUSH1 0x1 PUSH1 0x1 PUSH1 0xA0 SHL SUB SWAP1 SWAP3 AND SWAP4 POP SWAP1 PUSH2 0x7D9 SWAP1 PUSH2 0xBE1 JUMP JUMPDEST DUP1 PUSH1 0x1F ADD PUSH1 0x20 DUP1 SWAP2 DIV MUL PUSH1 0x20 ADD PUSH1 0x40 MLOAD SWAP1 DUP2 ADD PUSH1 0x40 MSTORE DUP1 SWAP3 SWAP2 SWAP1 DUP2 DUP2 MSTORE PUSH1 0x20 ADD DUP3 DUP1 SLOAD PUSH2 0x805 SWAP1 PUSH2 0xBE1 JUMP JUMPDEST DUP1 ISZERO PUSH2 0x852 JUMPI DUP1 PUSH1 0x1F LT PUSH2 0x827 JUMPI PUSH2 0x100 DUP1 DUP4 SLOAD DIV MUL DUP4 MSTORE SWAP2 PUSH1 0x20 ADD SWAP2 PUSH2 0x852 JUMP JUMPDEST DUP3 ADD SWAP2 SWAP1 PUSH1 0x0 MSTORE PUSH1 0x20 PUSH1 0x0 KECCAK256 SWAP1 JUMPDEST DUP2 SLOAD DUP2 MSTORE SWAP1 PUSH1 0x1 ADD SWAP1 PUSH1 0x20 ADD DUP1 DUP4 GT PUSH2 0x835 JUMPI DUP3 SWAP1 SUB PUSH1 0x1F AND DUP3 ADD SWAP2 JUMPDEST POP POP POP POP POP SWAP1 DUP1 PUSH1 0x2 ADD DUP1 SLOAD PUSH2 0x867 SWAP1 PUSH2 0xBE1 JUMP JUMPDEST DUP1 PUSH1 0x1F ADD PUSH1 0x20 DUP1 SWAP2 DIV MUL PUSH1 0x20 ADD PUSH1 0x40 MLOAD SWAP1 DUP2 ADD PUSH1 0x40 MSTORE DUP1 SWAP3 SWAP2 SWAP1 DUP2 DUP2 MSTORE PUSH1 0x20 ADD DUP3 DUP1 SLOAD PUSH2 0x893 SWAP1 PUSH2 0xBE1 JUMP JUMPDEST DUP1 ISZERO PUSH2 0x8E0 JUMPI DUP1 PUSH1 0x1F LT PUSH2 0x8B5 JUMPI PUSH2 0x100 DUP1 DUP4 SLOAD DIV MUL DUP4 MSTORE SWAP2 PUSH1 0x20 ADD SWAP2 PUSH2 0x8E0 JUMP JUMPDEST DUP3 ADD SWAP2 SWAP1 PUSH1 0x0 MSTORE PUSH1 0x20 PUSH1 0x0 KECCAK256 SWAP1 JUMPDEST DUP2 SLOAD DUP2 MSTORE SWAP1 PUSH1 0x1 ADD SWAP1 PUSH1 0x20 ADD DUP1 DUP4 GT PUSH2 0x8C3 JUMPI DUP3 SWAP1 SUB PUSH1 0x1F AND DUP3 ADD SWAP2 JUMPDEST POP POP POP POP POP SWAP1 POP DUP4 JUMP JUMPDEST DUP3 DUP1 SLOAD PUSH2 0x8F6 SWAP1 PUSH2 0xBE1 JUMP JUMPDEST SWAP1 PUSH1 0x0 MSTORE PUSH1 0x20 PUSH1 0x0 KECCAK256 SWAP1 PUSH1 0x1F ADD PUSH1 0x20 SWAP1 DIV DUP2 ADD SWAP3 DUP3 PUSH2 0x918 JUMPI PUSH1 0x0 DUP6 SSTORE PUSH2 0x95E JUMP JUMPDEST DUP3 PUSH1 0x1F LT PUSH2 0x931 JUMPI DUP1 MLOAD PUSH1 0xFF NOT AND DUP4 DUP1 ADD OR DUP6 SSTORE PUSH2 0x95E JUMP JUMPDEST DUP3 DUP1 ADD PUSH1 0x1 ADD DUP6 SSTORE DUP3 ISZERO PUSH2 0x95E JUMPI SWAP2 DUP3 ADD JUMPDEST DUP3 DUP2 GT ISZERO PUSH2 0x95E JUMPI DUP3 MLOAD DUP3 SSTORE SWAP2 PUSH1 0x20 ADD SWAP2 SWAP1 PUSH1 0x1 ADD SWAP1 PUSH2 0x943 JUMP JUMPDEST POP PUSH2 0x96A SWAP3 SWAP2 POP PUSH2 0x96E JUMP JUMPDEST POP SWAP1 JUMP JUMPDEST JUMPDEST DUP1 DUP3 GT ISZERO PUSH2 0x96A JUMPI PUSH1 0x0 DUP2 SSTORE PUSH1 0x1 ADD PUSH2 0x96F JUMP JUMPDEST PUSH4 0x4E487B71 PUSH1 0xE0 SHL PUSH1 0x0 MSTORE PUSH1 0x41 PUSH1 0x4 MSTORE PUSH1 0x24 PUSH1 0x0 REVERT JUMPDEST PUSH1 0x0 DUP3 PUSH1 0x1F DUP4 ADD SLT PUSH2 0x9AA JUMPI PUSH1 0x0 DUP1 REVERT JUMPDEST DUP2 CALLDATALOAD PUSH8 0xFFFFFFFFFFFFFFFF DUP1 DUP3 GT ISZERO PUSH2 0x9C5 JUMPI PUSH2 0x9C5 PUSH2 0x983 JUMP JUMPDEST PUSH1 0x40 MLOAD PUSH1 0x1F DUP4 ADD PUSH1 0x1F NOT SWAP1 DUP2 AND PUSH1 0x3F ADD AND DUP2 ADD SWAP1 DUP3 DUP3 GT DUP2 DUP4 LT OR ISZERO PUSH2 0x9ED JUMPI PUSH2 0x9ED PUSH2 0x983 JUMP JUMPDEST DUP2 PUSH1 0x40 MSTORE DUP4 DUP2 MSTORE DUP7 PUSH1 0x20 DUP6 DUP9 ADD ADD GT ISZERO PUSH2 0xA06 JUMPI PUSH1 0x0 DUP1 REVERT JUMPDEST DUP4 PUSH1 0x20 DUP8 ADD PUSH1 0x20 DUP4 ADD CALLDATACOPY PUSH1 0x0 PUSH1 0x20 DUP6 DUP4 ADD ADD MSTORE DUP1 SWAP5 POP POP POP POP POP SWAP3 SWAP2 POP POP JUMP JUMPDEST PUSH1 0x0 PUSH1 0x20 DUP3 DUP5 SUB SLT ISZERO PUSH2 0xA38 JUMPI PUSH1 0x0 DUP1 REVERT JUMPDEST DUP2 CALLDATALOAD PUSH8 0xFFFFFFFFFFFFFFFF DUP2 GT ISZERO PUSH2 0xA4F JUMPI PUSH1 0x0 DUP1 REVERT JUMPDEST PUSH2 0xA5B DUP5 DUP3 DUP6 ADD PUSH2 0x999 JUMP JUMPDEST SWAP5 SWAP4 POP POP POP POP JUMP JUMPDEST PUSH1 0x0 PUSH1 0x20 DUP3 DUP5 SUB SLT ISZERO PUSH2 0xA75 JUMPI PUSH1 0x0 DUP1 REVERT JUMPDEST DUP2 CALLDATALOAD PUSH1 0x1 PUSH1 0x1 PUSH1 0xA0 SHL SUB DUP2 AND DUP2 EQ PUSH2 0xA8C JUMPI PUSH1 0x0 DUP1 REVERT JUMPDEST SWAP4 SWAP3 POP POP POP JUMP JUMPDEST PUSH1 0x0 DUP2 MLOAD DUP1 DUP5 MSTORE PUSH1 0x0 JUMPDEST DUP2 DUP2 LT ISZERO PUSH2 0xAB9 JUMPI PUSH1 0x20 DUP2 DUP6 ADD DUP2 ADD MLOAD DUP7 DUP4 ADD DUP3 ADD MSTORE ADD PUSH2 0xA9D JUMP JUMPDEST DUP2 DUP2 GT ISZERO PUSH2 0xACB JUMPI PUSH1 0x0 PUSH1 0x20 DUP4 DUP8 ADD ADD MSTORE JUMPDEST POP PUSH1 0x1F ADD PUSH1 0x1F NOT AND SWAP3 SWAP1 SWAP3 ADD PUSH1 0x20 ADD SWAP3 SWAP2 POP POP JUMP JUMPDEST PUSH1 0x40 DUP2 MSTORE PUSH1 0x0 PUSH2 0xAF3 PUSH1 0x40 DUP4 ADD DUP6 PUSH2 0xA93 JUMP JUMPDEST DUP3 DUP2 SUB PUSH1 0x20 DUP5 ADD MSTORE PUSH2 0xB05 DUP2 DUP6 PUSH2 0xA93 JUMP JUMPDEST SWAP6 SWAP5 POP POP POP POP POP JUMP JUMPDEST PUSH1 0x0 PUSH1 0x20 DUP3 DUP5 SUB SLT ISZERO PUSH2 0xB20 JUMPI PUSH1 0x0 DUP1 REVERT JUMPDEST POP CALLDATALOAD SWAP2 SWAP1 POP JUMP JUMPDEST PUSH1 0x0 DUP1 PUSH1 0x40 DUP4 DUP6 SUB SLT ISZERO PUSH2 0xB3A JUMPI PUSH1 0x0 DUP1 REVERT JUMPDEST DUP3 CALLDATALOAD PUSH8 0xFFFFFFFFFFFFFFFF DUP1 DUP3 GT ISZERO PUSH2 0xB52 JUMPI PUSH1 0x0 DUP1 REVERT JUMPDEST PUSH2 0xB5E DUP7 DUP4 DUP8 ADD PUSH2 0x999 JUMP JUMPDEST SWAP4 POP PUSH1 0x20 DUP6 ADD CALLDATALOAD SWAP2 POP DUP1 DUP3 GT ISZERO PUSH2 0xB74 JUMPI PUSH1 0x0 DUP1 REVERT JUMPDEST POP PUSH2 0xB81 DUP6 DUP3 DUP7 ADD PUSH2 0x999 JUMP JUMPDEST SWAP2 POP POP SWAP3 POP SWAP3 SWAP1 POP JUMP JUMPDEST PUSH1 0x1 PUSH1 0x1 PUSH1 0xA0 SHL SUB DUP5 AND DUP2 MSTORE PUSH1 0x60 PUSH1 0x20 DUP3 ADD DUP2 SWAP1 MSTORE PUSH1 0x0 SWAP1 PUSH2 0xBAF SWAP1 DUP4 ADD DUP6 PUSH2 0xA93 JUMP JUMPDEST DUP3 DUP2 SUB PUSH1 0x40 DUP5 ADD MSTORE PUSH2 0xBC1 DUP2 DUP6 PUSH2 0xA93 JUMP JUMPDEST SWAP7 SWAP6 POP POP POP POP POP POP JUMP JUMPDEST PUSH4 0x4E487B71 PUSH1 0xE0 SHL PUSH1 0x0 MSTORE PUSH1 0x32 PUSH1 0x4 MSTORE PUSH1 0x24 PUSH1 0x0 REVERT JUMPDEST PUSH1 0x1 DUP2 DUP2 SHR SWAP1 DUP3 AND DUP1 PUSH2 0xBF5 JUMPI PUSH1 0x7F DUP3 AND SWAP2 POP JUMPDEST PUSH1 0x20 DUP3 LT DUP2 EQ ISZERO PUSH2 0xC16 JUMPI PUSH4 0x4E487B71 PUSH1 0xE0 SHL PUSH1 0x0 MSTORE PUSH1 0x22 PUSH1 0x4 MSTORE PUSH1 0x24 PUSH1 0x0 REVERT JUMPDEST POP SWAP2 SWAP1 POP JUMP JUMPDEST DUP1 SLOAD PUSH1 0x0 SWAP1 PUSH1 0x1 DUP2 DUP2 SHR SWAP1 DUP1 DUP4 AND DUP1 PUSH2 0xC36 JUMPI PUSH1 0x7F DUP4 AND SWAP3 POP JUMPDEST PUSH1 0x20 DUP1 DUP5 LT DUP3 EQ ISZERO PUSH2 0xC58 JUMPI PUSH4 0x4E487B71 PUSH1 0xE0 SHL PUSH1 0x0 MSTORE PUSH1 0x22 PUSH1 0x4 MSTORE PUSH1 0x24 PUSH1 0x0 REVERT JUMPDEST DUP4 DUP9 MSTORE PUSH1 0x20 DUP9 ADD DUP3 DUP1 ISZERO PUSH2 0xC73 JUMPI PUSH1 0x1 DUP2 EQ PUSH2 0xC84 JUMPI PUSH2 0xCAF JUMP JUMPDEST PUSH1 0xFF NOT DUP8 AND DUP3 MSTORE DUP3 DUP3 ADD SWAP8 POP PUSH2 0xCAF JUMP JUMPDEST PUSH1 0x0 DUP10 DUP2 MSTORE PUSH1 0x20 SWAP1 KECCAK256 PUSH1 0x0 JUMPDEST DUP8 DUP2 LT ISZERO PUSH2 0xCA9 JUMPI DUP2 SLOAD DUP5 DUP3 ADD MSTORE SWAP1 DUP7 ADD SWAP1 DUP5 ADD PUSH2 0xC90 JUMP JUMPDEST DUP4 ADD SWAP9 POP POP JUMPDEST POP POP POP POP POP POP POP SWAP3 SWAP2 POP POP JUMP JUMPDEST DUP5 DUP2 MSTORE PUSH1 0x1 PUSH1 0x1 PUSH1 0xA0 SHL SUB DUP5 AND PUSH1 0x20 DUP3 ADD MSTORE PUSH1 0x80 PUSH1 0x40 DUP3 ADD DUP2 SWAP1 MSTORE PUSH1 0x0 SWAP1 PUSH2 0xCE6 SWAP1 DUP4 ADD DUP6 PUSH2 0xC1C JUMP JUMPDEST DUP3 DUP2 SUB PUSH1 0x60 DUP5 ADD MSTORE PUSH2 0xCF8 DUP2 DUP6 PUSH2 0xA93 JUMP JUMPDEST SWAP8 SWAP7 POP POP POP POP POP POP POP JUMP JUMPDEST DUP5 DUP2 MSTORE PUSH1 0x1 PUSH1 0x1 PUSH1 0xA0 SHL SUB DUP5 AND PUSH1 0x20 DUP3 ADD MSTORE PUSH1 0x80 PUSH1 0x40 DUP3 ADD DUP2 SWAP1 MSTORE PUSH1 0x0 SWAP1 PUSH2 0xD2D SWAP1 DUP4 ADD DUP6 PUSH2 0xA93 JUMP JUMPDEST DUP3 DUP2 SUB PUSH1 0x60 DUP5 ADD MSTORE PUSH2 0xCF8 DUP2 DUP6 PUSH2 0xC1C JUMP JUMPDEST PUSH1 0x0 DUP3 DUP3 LT ISZERO PUSH2 0xD5F JUMPI PUSH4 0x4E487B71 PUSH1 0xE0 SHL PUSH1 0x0 MSTORE PUSH1 0x11 PUSH1 0x4 MSTORE PUSH1 0x24 PUSH1 0x0 REVERT JUMPDEST POP SUB SWAP1 JUMP JUMPDEST DUP5 DUP2 MSTORE PUSH1 0x1 PUSH1 0x1 PUSH1 0xA0 SHL SUB DUP5 AND PUSH1 0x20 DUP3 ADD MSTORE PUSH1 0x80 PUSH1 0x40 DUP3 ADD DUP2 SWAP1 MSTORE PUSH1 0x0 SWAP1 PUSH2 0xCE6 SWAP1 DUP4 ADD DUP6 PUSH2 0xA93 JUMP INVALID LOG2 PUSH5 0x6970667358 0x22 SLT KECCAK256 0xBB BASEFEE DUP7 PUSH21 0x5E5A985F41A525733020A32429D04D1F98D54921D6 SGT ADDRESS 0xB7 DIV JUMPDEST RETURNDATACOPY 0xF8 PUSH5 0x736F6C6343 STOP ADDMOD EXP STOP CALLER "},"methodIdentifiers":{"createGravatar(string,string)":"cdb3344a","getGravatar(address)":"359c1f72","gravatarToOwner(uint256)":"88d0d391","gravatars(uint256)":"d5ce24ed","ownerToGravatar(address)":"a5ac3634","setMythicalGravatar()":"1d4f2c6d","updateGravatarImage(string)":"0081d6e5","updateGravatarName(string)":"b18588fb"}}}}}